:020000040000FA
:10000000000204000000000090020000042700002D
:10001000082700000C27000010270000142700000C
:100020009002000090020000900200009002000088
:100030009002000090020000900200009002000078
:100040009002000090020000900200009002000068
:100050009002000090020000900200009002000058
:100060009002000090020000900200009002000048
:100070009002000090020000900200009002000038
:100080009002000090020000900200009002000028
:100090009002000090020000900200009002000018
:1000A0009002000090020000900200009002000008
:1000B00090020000900200009002000090020000F8
:1000C00090020000900200009002000090020000E8
:1000D00090020000900200009002000090020000D8
:1000E00090020000900200009002000090020000C8
:1000F00090020000900200009002000090020000B8
:1001000090020000900200009002000090020000A7
:100110009002000090020000900200009002000097
:100120009002000090020000900200009002000087
:100130009002000090020000900200009002000077
:100140009002000090020000900200009002000067
:100150009002000090020000900200009002000057
:100160009002000090020000900200009002000047
:100170009002000090020000900200009002000037
:100180009002000090020000900200009002000027
:100190009002000090020000900200009002000017
:1001A0009002000090020000900200009002000007
:1001B00090020000900200009002000090020000F7
:1001C00090020000900200009002000090020000E7
:1001D00090020000900200009002000090020000D7
:1001E00090020000900200009002000090020000C7
:1001F00090020000900200009002000090020000B7
:10020000FFFFFF00FFFFFF00900200001827000023
:100210001C270000202700002427000028270000BA
:100220009002000090020000900200009002000086
:100230009002000090020000900200009002000076
:100240009002000090020000900200009002000066
:100250009002000090020000900200009002000056
:100260009002000090020000900200009002000046
:100270009002000090020000900200009002000036
:100280009002000090020000900200009002000026
:100290009002000090020000900200009002000016
:1002A0009002000090020000900200009002000006
:1002B00090020000900200009002000090020000F6
:1002C00090020000900200009002000090020000E6
:1002D00090020000900200009002000090020000D6
:1002E00090020000900200009002000090020000C6
:1002F00090020000900200009002000090020000B6
:1003000090020000900200009002000090020000A5
:100310009002000090020000900200009002000095
:100320009002000090020000900200009002000085
:100330009002000090020000900200009002000075
:100340009002000090020000900200009002000065
:100350009002000090020000900200009002000055
:100360009002000090020000900200009002000045
:100370009002000090020000900200009002000035
:100380009002000090020000900200009002000025
:100390009002000090020000900200009002000015
:1003A0009002000090020000900200009002000005
:1003B00090020000900200009002000090020000F5
:1003C00090020000900200009002000090020000E5
:1003D00090020000900200009002000090020000D5
:1003E00090020000900200009002000090020000C5
:1003F00090020000900200009002000090020000B5
:10040000CF2F2100EE5E24000E01880000000000C6
:100410000C000700C072220001002000110007003C
:10042000000020000000E000020032000000020096
:100430000000000000200200000000000040DA0080
:100440000000FE004440A900000F20000000E00072
:100450000300320000002000A00188004440A800F2
:100460000000060091018800800078000000EB0089
:1004700015003700E280400032A0B4009101BA00BC
:10048000E280400032A0B4009102BA00E280400055
:1004900032A0B4000002EB00472BDE00F507B200EB
:1004A000602CE10004003A000059EB008301E900F0
:1004B000FDFF3E00040037006128E100010032002A
:1004C0000082EB00040007001101BA000200E00006
:1004D000E8FF3A00000006003159BA008301E90044
:1004E0000C0032002159BA008301E90008003200F3
:1004F0000400E00003003A00E280400032A0B400B3
:10050000F5FF370011D9BA008301E900FAFF3A007C
:100510008100E800E180400032A0B4000000060045
:100520000040DA000000FE00889FBE008A9FBE00E7
:10053000010578000100E0000400350008003C00DF
:100540000000E000200032000500370060001000CD
:10055000E080180002003B0001F02C001A00370078
:100560000004BE006011B8006B0920000982CF00B2
:10057000020039000882CF000441B00069425200F5
:100580000E00320008003B008281710061016400AE
:100590008904D1000884D3008B05E8000442E800F8
:1005A000F9FF3A00050037000804440089844C0034
:1005B0008B05E9000442E900FBFF3A00F500070063
:1005C0000AF0A70001F0A0004F05BE004F04BE00D6
:1005D0000000060003F0A200889FBE008A9FBE00B4
:1005E0008C1F780011010700180133006450E100EE
:1005F0004F0032006420E1005200320003826C00A0
:1006000007003B000905D0000306D000820F54000C
:100610000C065D00020039000200320089017800FA
:10062000030678008582550004003D000003FD00AC
:100630008103FD008502EA008B854200840F720071
:1006400002003B0060001000E08018006011B8005C
:100650000005EB007A28E1000A0039000600780066
:10066000C75DDD00F707B200878075002D003700F9
:10067000828171000A017800610560008180D100EB
:100680000080D3008502E900F9FF3B00060440002A
:100690008784480002003B0060041400E0841C00D2
:1006A0000988A300070032008A81710082817100ED
:1006B000610164008904D1000884D3008B05E8003F
:1006C000170037000978A30013003A000B00E00080
:1006D000130034008B05E9000804440089844C00B1
:1006E0000A4474000978A3000D003A000B00E000F2
:1006F000070034008B05E9000804440089844C009D
:1007000001003A000B0020000978A300F7FF320037
:100710000001EB0002003700828171000A017800BD
:100720009C0007000CF0A70001F0A000D0003700EB
:100730006420E10002003A00838F6C00D000330097
:100740000801BE000200BE00C9003700889FBE003D
:100750008A9FBE008C1F7800B4000700BB003300E6
:1007600003866C006450E100240032006420E10044
:10077000270032006150E100220032006120E100D8
:10078000210032008B854200EB07B1000134B80034
:10079000003AB8000804420089844A00013AB800CF
:1007A0000030B8008880400009014A00040033008E
:1007B0000000400081804800020149008B05E900EB
:1007C000C909DD0083017000010032001300200020
:1007D000C814DE004814DD004709DE001200B20034
:1007E000C808DE00088470006A00070001F0A1005C
:1007F0000CF0A70001F0A0009D0037006120E1008F
:100800009F0032000801BE000200BE00F7FF370063
:100810006150E100FCFF3A00990037000001BE0082
:100820009A0007000470A70003F0A1006509B10059
:10083000160032000D0035006828E1000600350082
:10084000F0FF2F00F1FF27000300E00013003B0042
:1008500001002800000005000000400081804800E1
:100860008502E900FCFF3A0008003700F88F4200DB
:1008700002003C008000EB00000005008100D10078
:100880000080D3008502E800FCFF3A000300E0008E
:1008900002003B0060001000E0801800000006002D
:1008A0000081EB008E0037000001EB008C00370068
:1008B000F4FF2F00F3003700889FBE008A9FBE0020
:1008C0008C1F78000004BE00700007000478A300AD
:1008D00026003A006120E1002500320009F8A3005B
:1008E00025003A006420E10021003200F507B10044
:1008F0000508A3000200320000004000818048008B
:100900006044B800031020000200200000004000F6
:10091000818048000805440089854C000A05410093
:100920008B8549000A0550008B8558000300330071
:100930000A00BE0002047400838474008301D100A5
:100940000281D300830F7100F0FF3A008904D100C7
:100950000884D3006001490082017800C1ADDE0047
:10096000FB07B0000B000700410037000960A00042
:100970000800BE003E00370012022000D297880017
:10098000F0FF2F00F1FF270039003700140020008E
:10099000BC00370081002000618055000B003D0045
:1009A0000B00200061FE2F000100E1001D0034005B
:1009B00082817100610164008904D1000884D30040
:1009C0000000E800FAFF3A007100200061006400B6
:1009D000030070000200600009003200610444005E
:1009E000E0844C000988A500050032008B05E80072
:1009F0006808E10002003A008904D1000884D300AD
:100A0000F20F20000258E10005003D00C75DDD0047
:100A1000F907B20089807500080078000000060020
:100A20000BF827008B007800000005000004BE00D2
:100A3000160007000003BE000405BE000200BE0051
:100A400012000700844F7500000006000200BE007F
:100A50006450E100050036006420E1000200360029
:100A60000968A30001003A000800BE000160A00070
:100A70004F0678004F05BE004F04BE000000060080
:100A8000F0FF2F00F1FF2700F9FF3700C70ADE0053
:100A9000F107B200F50FB20008003200E1CF4200CA
:100AA000020032000170A00024000500810F7000D8
:100AB000010032000408050044000500810F7000A9
:100AC00002003A00140005008502E9000000400021
:100AD00081C04800FCFF3B000170A000240005001D
:100AE000889FBE008A9FBE008C9FBE008205780052
:100AF0000004BE00E5FF07000800BE006420E1001E
:100B00000700390002003A00F1FF2700F0FF2F0034
:100B10000160A00012022000D29788005500370023
:100B20006120E10003003A000B00A70001F8230058
:100B30005000370001F0A10002002100936424005E
:100B400092FF07000800BE0004003500B2FD20003F
:100B5000930C2400660007000004BE000005EB00B3
:100B60000B00A6004F0DDE0001F0A1000004BE0046
:100B700032982F0023EA2300F4FE07000001EB0067
:100B800003F023000B00A70003F8230092FE0700E8
:100B900022FF07000000A7000A00A20062FE070073
:100BA0000B00E000030032000200200003F02300ED
:100BB00088FE070001F0A2000006BE00020020002F
:100BC00093042400E1FE07000801BE0082FE070036
:100BD000809FBE000C00BE0022A22A00D3A72300E3
:100BE000DAFE07004F01BE007BFE07000004BE00D6
:100BF00001F0A100020020000398230063FF07001A
:100C00000800BE00190035000001BE00CFFE07003D
:100C10000006BE00B2C52900E3622300CBFE070038
:100C200022222B00F3942B006BFE07000C01BE0068
:100C3000C6FE0700E273280083C0230066FE07009B
:100C40000C01BE00C1FE070042AA2A00A3E22B004D
:100C500061FE07000C01BE00BCFE07000801BE00DB
:100C6000BAFE07000801BE005BFE07000A00A700ED
:100C700001F0A2004F06BE004F05BE004F04BE00AB
:100C800000000600889FBE008A9FBE00841F780077
:100C900066FF07004F00780011003300F0FF2F00BF
:100CA000838F6C0006003B00040565000A00A70066
:100CB0000800370009F0A6001000200008003700E7
:100CC000820F5400838F5C00030039001000200065
:100CD00001003E000000200009F0A7000000EA002B
:100CE0004F05BE004F04BE000000E00000000600FB
:100CF0000400200000003700889FBE008A9FBE00CD
:100D00008C1F78004F26DD0048FF07004FFF33009F
:100D10006120E100430032006250E10041003E00EA
:100D20003E0039006420E1003C003200058255009D
:100D30000F003B000402E80038003A00800F530027
:100D4000818F5B00350034000800BE0003F0A10075
:100D500001F0A60003F0A0000CF0A7001EFE0700A3
:100D600043FF37000603430087834B000C464600D1
:100D70000005530081855B00020033000A03BE00BA
:100D80000C00A0000402E900F6FF3B008505780096
:100D90000602430087824B0004003A006000B8005E
:100DA00009F0A70001F0A00031FF37000002520057
:100DB00081825A000704E000040033000603430068
:100DC00087834B008B05E900FAFF3700090578009F
:100DD0000604BE000203BE006011B800EDFE07006D
:100DE000E00F5200E08F5A000700350002003C007F
:100DF0000C08A300040032000601BE0003F0A000AE
:100E00000CF0A700F4FD07000A85680001F0A100BE
:100E10000AF0A70001F0A00015FF37000800BE008F
:100E200013FF3700100220000CF0A600D0978800B6
:100E300013FF3700FE200000D0000000FE1000006D
:100E4000FE00000090D00000B09000007CA20000E6
:100E5000928A00007C00000084FE000080000000F8
:100E6000E4920000929200008C4400008292000004
:100E7000926C00003028000024FE0000204E00008C
:100E80008A8A00008A720000789400009292000022
:100E900060020000E21200000A0600006C920000EE
:100EA000929200006C0C000092920000523C0000F4
:100EB000000000000000000000B80000645C0000BA
:100EC000443A00001028000044820000002800007E
:100ED0002828000028280000824400002810000074
:100EE00000400000201000000804000000C00000C6
:100EF000C000000000F800002422000024F80000D8
:100F000082FE0000929200006C7C00008282000051
:100F10008244000082FE0000828200007CFE00000D
:100F20009292000082820000FE1200001202000075
:100F3000027C00008292000092740000FE1000000B
:100F400010100000FE00000082FE00008200000081
:100F500040800000827E000002FE00001028000099
:100F600044820000FE8000008080000080FE0000BF
:100F70000418000004FE0000FE0400000810000039
:100F8000FE7C000082820000827C0000FE120000D5
:100F9000121200000C7C000082A2000042BC000083
:100FA000FE120000325200008C4C000092920000B1
:100FB0009264000002020000FE020000027E0000B7
:100FC00080800000807E00000E300000C0300000F5
:100FD0000EFE00004030000040FE0000C628000069
:100FE00010280000C606000008F0000008060000F7
:100FF000C2A20000928A0000865600004F4C0000FA
:10100000004100004D000000464D0000003B000084
:101010000000000081C3A90081A3A90080C3BF0014
:10102000F1CCB3000140600080E3B70080C3BF0093
:10103000C1CFB3000140600080E3B7000030200062
:10104000401C8800F00F2000501C8800D0002000B9
:10105000101C880000602000201C88008480A900EB
:101060009480A90081E3A80000000600881F780092
:1010700000047800CF80DE002BFD07000800E000B0
:1010800003003D00020020000378240052FD070009
:10109000F2512800531B2400ACFD0700DFFD0700C0
:1010A000000178000000E00002003A004F047800E0
:1010B000000006000000E90067006000000000007A
:1010C00011002000810F5100F8FF36000000E00001
:1010D0001C003200810F500016003200E20F500059
:1010E00012003200E30F50000E003200E40F5000F7
:1010F0000A003200E50F500006003200E60F5000F3
:10110000020032000000000021002000000000006A
:101110008100E800000000008100E80000000000FD
:101120008100E800000000008100E80000000000ED
:101130008100E800000000008100E800810F5100FC
:10114000DAFF3600000000000100E80000000000A7
:10115000000000000000000000000000000000008F
:101160000000000000000000E7004000810F510077
:10117000CEFF3600F3FF3700A20020008000EB0016
:10118000030037000201E900FCFF3A0000000600FE
:10119000000000000100E800000000000000000066
:1011A000000000000000000000000000000000003F
:1011B0000000000000000000E8004000A01C21002A
:1011C000808F5000EFFF3200F1FF37004000200019
:1011D000A092880000012000B092880070004000BA
:1011E00040978800D832EF00B0FD200091EC23003A
:1011F000ABFD0700020020000320240053FD070080
:1012000086FD070050978800B0FD200091EC230078
:10121000A5FD070002002000032024004BFD07006D
:101220007EFD0700D0968800B0FD200091F42300D9
:101230009BFD0700020020000320240043FD07005F
:1012400076FD070060978800B0FD200091F4230030
:1012500095FD070002002000032024003BFD07004D
:101260006EFD0700E096880040BE2C0061F9230067
:101270008BFD0700020020000320240033FD07003F
:1012800066FD07007097880040BE2C0061F92300BE
:1012900085FD070002002000032024002BFD07002D
:1012A0005EFD0700F0968800B0FD200091FC230051
:1012B0007BFD0700020020000320240023FD07001F
:1012C00056FD070080978800B0FD200091FC2300A8
:1012D00075FD070002002000032024001BFD07000D
:1012E0004EFD070000978800203D2500B1FF230038
:1012F0006BFD0700020020000320240013FD0700FF
:1013000046FD070090978800203D2500B1FF23008F
:1013100065FD070002002000032024000BFD0700EC
:101320003EFD07001097880040BE2C00610124009C
:101330005BFD0700020020000320240003FD0700DE
:1013400036FD0700A097880040BE2C0061012400F4
:1013500055FD07000200200003202400FBFC0700CD
:101360002EFD07002097880000DE2E00F1022400E9
:101370004BFD07000200200003202400F3FC0700BF
:1013800026FD0700B097880000DE2E00F102240041
:1013900045FD07000200200003202400EBFC0700AD
:1013A0001EFD07003097880000000600889FBE00E1
:1013B0008A9FBE008C1F780070002000806A880021
:1013C00000082000906A88000006EB00481D2100FC
:1013D00049152100040037004F0678004F05BE0074
:1013E0004F04BE00000006006160B9004EFC07001B
:1013F000B2FD2000930C2400D4FC07000200200062
:1014000003C02300D1FC07000005BE0024FD070037
:101410000200200003202400CCFC0700FFFC070092
:10142000001C78000A00BE001FFD0700020020001B
:1014300003202400C5FC0700F8FC0700801C78008E
:101440000C06E8006160B90037FC0700B2FD20001F
:10145000930C2400BDFC07000200200003C0230001
:10146000BAFC07000005BE000DFD070002002000C9
:1014700003202400B5FC0700E8FC0700001C7800EE
:101480000A00BE0008FD070002002000032024001F
:10149000AEFC0700E1FC0700801C78000C06E800A9
:1014A00000042000800F5600CBFF3200CEFF370033
:1014B0006F03B000889FBE008A9FBE008C9FBE0055
:1014C0008E1F7800B0928000B0B79F008080D1005E
:1014D000D1AF9F004240A900E2013C000101780029
:1014E000030037000501780001003700040178008F
:1014F0000281D100B2AF9F00A3928000F3AF9F00A2
:101500000302E900E4AF9F0025002000C5AF9F0063
:10151000E10F5200B400340017002000A7AF9F0075
:1015200028002000C8AF9F00870478000100370022
:10153000830478000908A300D1003A00CC003700EA
:101540000006EB008CA79F000C017800CFA9970044
:101550000390B900000140005FAA97000400E0007A
:101560003F0034000000420000004000852B2100B5
:101570008502400095AF9F008729210007004000A9
:1015800080AF9F00882B210008044100F8A79F002E
:1015900002804100000040008927210089044000AA
:1015A000E9A79F00070741008C2521008C06400019
:1015B0000200410081272100010640008225210010
:1015C000820540000005EB0085017800010037002E
:1015D0009FA997003301780093AF9F000A00450050
:1015E000842E210060037A008FAA9700B50478004A
:1015F00085AF9F00872D210060847B000692B90093
:1016000008C8B9000002520045A2DE000890B900E7
:1016100009B3B900060140004591DE00FFA1970023
:10162000B3007800F3A79F00EFA29700849A5000C0
:10163000E5A79F003E007800821E5000011E420078
:10164000801D4100BFAB9700070545005FAC9700C8
:101650008A0F5400DEFF3C000706780001003700C7
:101660003FAE97008FA497008904E80089A79F00E8
:10167000890F56004E0032000FA19700B3FF3700CC
:101680000000EB00F09F9F00000178000100370090
:1016900009017800CFA997000390B900000140002C
:1016A0005FAA97000400E0003B0034000000420005
:1016B000000040008527210085024000D5A79F003B
:1016C0008725210007004000C0A79F008827210030
:1016D00008044100B8A79F000280410000004000BC
:1016E000892B210089014000070741008C29210036
:1016F0008C064000020041000906400081292100BB
:10170000810540000005EB0005027800010037006C
:101710005FA2970034017800D4A79F000A0045001B
:10172000852E210060837A00CFA39700B70478004C
:10173000C7A79F00812D2100608478000692B90020
:1017400008C8B9000002520045A2DE000890B900A6
:1017500009B3B900060140004591DE00BFA2970021
:10176000B5007800B5A79F00849950003E0078002E
:10177000821E5000011E4200801D4100BFAB970039
:10178000070545005FAC97008A0F5400E0FF3C005E
:1017900007067800010037003FAE9700FF9C9700D6
:1017A0008904E800F99F9F00890F5600B8FF3A00AE
:1017B0000C0178004FA8970000004000C0AF9F00C8
:1017C0000281D100B2AF9F00AFA997008301E8006A
:1017D000A3AF9F006FAA9700848F510054FF3A0077
:1017E000FFAA970001003700830278000508A300D4
:1017F0001B003A00020037008C007800010037001F
:10180000C1958000DFAB970007804300892B210042
:1018100060837C008829210060027C000100430075
:10182000C0938800C294800002004200C0928800E9
:101830004FAE97000C00460085272100868050009F
:1018400001B07A00862521000401510002307B009E
:101850008C03E900E10F56000E003400130037003E
:101860003FB097000000E000A3003C00E4FF370019
:10187000BFA897000100E00081FF3C000300370093
:101880003FA997000200E0002DFF3C003FA9970010
:10189000C8FF37004F0778004F06BE004F05BE0057
:1018A0004F04BE006F03B10000000600DFA99700DF
:1018B0000300E800000040008900400008014000EB
:1018C0004FAA970007004200000040008501400039
:1018D00006024000078043008502400006034000E6
:1018E0004FAC9700E1036400B1047800A9B79F00F2
:1018F0005C9780009CB79F0032007800DE968000E5
:101900000CCEB9000E85B9008A045600C5CCDE00A5
:10191000A9A79F002FB497000EC6B9009FB49700E7
:1019200000CDB9008A044600C5CDDE00DA958000FE
:101930002FA697008A114600D9948000099245008D
:101940008C1255000B9354002000200090A79F009C
:101950004FAC970029002000890F5400CDFF3200C2
:101960000700E0001E00320031067800ACB79F008F
:1019700060978000B2037800EE96800000E6B90020
:101980000EBDB9008A045600C5CCDE00A9A79F0091
:101990002FB497000EC6B9000785B9008A04460027
:1019A000C5CDDE00EA958000AFA497008A9144007F
:1019B000E9948000099245002FA697008C125500EB
:1019C0000B9354003000200090A79F00400020009F
:1019D000CFAB970038002000888F5300ADFF320056
:1019E000B1047800A9B79F00AC2E210060067E00EC
:1019F0009CB79F00B2037800A82D210060077C00EF
:101A00000CCEB9000EBDB9008A045600C5CCDE006C
:101A1000A9A79F00AFB497000ECEB9001FB49700DE
:101A200007C5B9008A044600C5CDDE00A82B2100F9
:101A300060057C00AFA497008A914400A72921008B
:101A4000E0847B00099245002FA697008C12550078
:101A50000B9354000080E80083BF9F00B101780021
:101A6000A3B79F00A92E2100E0847C0099B79F00B6
:101A7000320678008CB79F00A32D21006087790083
:101A8000AFB19700099EB9008FB497000ECDB90091
:101A90008A045600C5CCDE00A9A79F000E9EB9009F
:101AA0009FB197008FB49700099DB9008A04460042
:101AB000C5CDDE0060057C000FBE9700AFA197008A
:101AC0000A964100E0847B0009924500831255008C
:101AD0000B9354009FA397008783E80097A79F006C
:101AE0000080E8008C0178004FAC9700870F54000D
:101AF00068FF3200BAFF370080047800862B21008F
:101B00008327210084292100852521000000E90088
:101B100067006000CC938000CC958800C192800063
:101B2000C19488001200200021002000828F540000
:101B300031FF32000000E0002D003200820F500023
:101B400024003200810F50001E003200E30F5000CD
:101B500018003200E40F500012003200E50F500070
:101B60000C003200E60F500006003200D2938000D5
:101B7000D2958800D7928000D79488000101780020
:101B80004100200063B3780065B278000201E800EC
:101B90008180E80063B3780065B278000201E80054
:101BA0008180E80063B3780065B278000201E80044
:101BB0008180E80063B3780065B278000201E80034
:101BC0008180E80063B3780065B278000201E80024
:101BD0008180E80063B3780065B278000201E80014
:101BE0008180E8003FB69700820F560004FF320064
:101BF00063B3780065B278000180E8006333780051
:101C0000653278008080E80063B3780065B27800C0
:101C1000E400400063B3780065B27800E60040005D
:101C200063B3780065B27800E800400063B37800E1
:101C300065B27800EA00400063B3780065B27800CE
:101C4000EC00400063B3780065B2780068014100A1
:101C5000EE0040003FB69700820F5600E8FE3200CB
:101C6000E3FF3700010178008180400080272100D8
:101C70008086400080252100808040008E29210040
:101C80000200E90061006000BD04780031057800C1
:101C9000C7938000C892800007824400C4958800E2
:101CA00008024500C49488002500200009825300E2
:101CB000D49588000A025400D49488001C002000A7
:101CC000A2272100A32521005FAA97008C0F5200B4
:101CD00006FE32000000E00012003200BD04780071
:101CE00031057800920378001304780007824400DD
:101CF000E495880008024500E494880009825300B6
:101D0000F49588000A025400F494880005067800CF
:101D1000C2272100C3252100DFAA97008C8F520023
:101D2000F0FD3200BD04780031057800B203780080
:101D3000330478008C024600058342000782440089
:101D4000802B2100043378000802450004337F0013
:101D50000502E800840242000982530084327800C0
:101D60000A02540084327F000C06E8000D0078005F
:101D700083057800B004780031057800B20378005C
:101D80003B0478008C024600058342000782440031
:101D9000832B210004B379000802450004337F003F
:101DA0000502E800840242000982530084B27900EF
:101DB0000A02540084327F000C06E8008006780096
:101DC0008B0178005FAA97008C0F5200C7FD32008C
:101DD000D4FF37006F03B000889FBE008A9FBE000B
:101DE0008C9FBE008E1F7800906A8000B0B79F0065
:101DF0008080D100D1AF9F004240A900E2013C00A9
:101E00000101780003003700050178000100370068
:101E1000040178000281D100B2AF9F00836A800084
:101E2000F3AF9F000302E900E4AF9F00250020000C
:101E3000C5AF9F00E10F5200B4003400170020002E
:101E4000A7AF9F0028002000C8AF9F00870478003C
:101E500001003700830478000908A300D1003A008C
:101E6000CC0037000006EB008CA79F000C01780027
:101E7000CFA997000390B900000140005FAA970026
:101E80000400E0003F003400000042000000400079
:101E900045E520008502400095AF9F0047D5200012
:101EA0000700400080AF9F0048E520000804410083
:101EB000F8A79F0002804100000040004905210072
:101EC00089044000E9A79F00070741004CF5200066
:101ED0008C0640000200410041052100010640003F
:101EE00042F52000820540000005EB0085017800E6
:101EF000010037009FA997003301780093AF9F003E
:101F00000A004500441D210060037A008FAA970053
:101F1000B504780085AF9F004715210060847B00E1
:101F20000692B90008C8B9000002520045A2DE00BE
:101F30000890B90009B3B900060140004591DE00E0
:101F4000FFA19700B3007800F3A79F00EFA29700CE
:101F5000849A5000E5A79F003E007800821E500042
:101F6000011E4200801D4100BFAB970007054500E0
:101F70005FAC97008A0F5400DEFF3C000706780034
:101F8000010037003FAE97008FA497008904E80056
:101F900089A79F00890F56004E0032000FA19700BD
:101FA000B3FF37000000EB00F09F9F0000017800B6
:101FB0000100370009017800CFA997000390B9000C
:101FC000000140005FAA97000400E0003B003400DD
:101FD000000042000000400045052100850240004D
:101FE000D5A79F0047F5200007004000C0A79F002D
:101FF0004805210008044100B8A79F000280410065
:102000000000400049E52000890140000707410029
:102010004CD520008C06400002004100090640001B
:1020200041D52000810540000005EB000502780045
:10203000010037005FA2970034017800D4A79F0009
:102040000A004500451D210060837A00CFA3970058
:10205000B7047800C7A79F0041152100608478006D
:102060000692B90008C8B9000002520045A2DE007D
:102070000890B90009B3B900060140004591DE009F
:10208000BFA29700B5007800B5A79F0084995000C3
:102090003E007800821E5000011E4200801D41005B
:1020A000BFAB9700070545005FAC97008A0F54004F
:1020B000E0FF3C0007067800010037003FAE9700C4
:1020C000FF9C97008904E800F99F9F00890F560044
:1020D000B8FF3A000C0178004FA8970000004000BC
:1020E000C0AF9F000281D100B2AF9F00AFA997009F
:1020F0008301E800A3AF9F006FAA9700848F51006F
:1021000054FF3A00FFAA97000100370083027800CD
:102110000508A3001B003A00020037008C0078007D
:1021200001003700A1728000DFAB970007804300F9
:1021300049E5200060837C0048D5200060027C00D7
:1021400001004300A0828800A26A800002004200D1
:10215000A07A88004FAE97000C004600450521008C
:102160008680500001B07A0046F52000040151003D
:1021700002307B008C03E900E10F56000E003400B2
:10218000130037003FB097000000E000A3003C00C0
:10219000E4FF3700BFA897000100E00081FF3C008A
:1021A000030037003FA997000200E0002DFF3C002C
:1021B0003FA99700C8FF37004F0778004F06BE00C1
:1021C0004F05BE004F04BE006F03B10000000600C3
:1021D000DFA997000300E8000000400089004000EC
:1021E000080140004FAA970007004200000040008D
:1021F0008501400006024000078043008502400040
:10220000060340004FAC9700E1036400B10478007E
:10221000A9B79F00BC8E80009CB79F003200780059
:10222000BE8A80000CCEB9000E85B9008A04560023
:10223000C5CCDE00A9A79F002FB497000EC6B90039
:102240009FB4970000CDB9008A044600C5CDDE00DA
:10225000BA7280002FA697008A114600B96A8000E2
:10226000099245008C1255000B9354002000200069
:1022700090A79F004FAC970029002000890F5400C1
:10228000CDFF32000700E0001E003200310678006A
:10229000ACB79F00C08E8000B2037800CE8A800069
:1022A00000E6B9000EBDB9008A045600C5CCDE00B8
:1022B000A9A79F002FB497000EC6B9000785B900E3
:1022C0008A044600C5CDDE00CA728000AFA4970024
:1022D0008A914400C96A8000099245002FA69700A0
:1022E0008C1255000B9354003000200090A79F00E3
:1022F00040002000CFAB970038002000888F5300AB
:10230000ADFF3200B1047800A9B79F006C1D210019
:1023100060067E009CB79F00B2037800681521001C
:1023200060077C000CCEB9000EBDB9008A045600CF
:10233000C5CCDE00A9A79F00AFB497000ECEB900B0
:102340001FB4970007C5B9008A044600C5CDDE005A
:1023500068E5200060057C00AFA497008A914400E6
:1023600067D52000E0847B00099245002FA69700E6
:102370008C1255000B9354000080E80083BF9F002F
:10238000B1017800A3B79F00691D2100E0847C00A3
:1023900099B79F00320678008CB79F006315210023
:1023A00060877900AFB19700099EB9008FB497009C
:1023B0000ECDB9008A045600C5CCDE00A9A79F0047
:1023C0000E9EB9009FB197008FB49700099DB90088
:1023D0008A044600C5CDDE0060057C000FBE970074
:1023E000AFA197000A964100E0847B000992450066
:1023F000831255000B9354009FA397008783E80036
:1024000097A79F000080E8008C0178004FAC9700F0
:10241000870F540068FF3200BAFF3700800478004D
:1024200046E520004305210044D5200045F5200065
:102430000000E90067006000AC828000AC72880098
:10244000A17A8000A16A88001200200021002000EB
:10245000828F540031FF32000000E0002D00320076
:10246000820F500024003200810F50001E00320005
:10247000E30F500018003200E40F50001200320049
:10248000E50F50000C003200E60F5000060032004D
:10249000B2828000B2728800B77A8000B76A880082
:1024A000010178004100200063B3780065B2780034
:1024B0000201E8008180E80063B3780065B278002B
:1024C0000201E8008180E80063B3780065B278001B
:1024D0000201E8008180E80063B3780065B278000B
:1024E0000201E8008180E80063B3780065B27800FB
:1024F0000201E8008180E80063B3780065B27800EB
:102500000201E8008180E8003FB69700820F560084
:1025100004FF320063B3780065B278000180E80000
:1025200063337800653278008080E80063B3780018
:1025300065B27800E400400063B3780065B27800CB
:10254000E600400063B3780065B27800E800400020
:1025500063B3780065B27800EA00400063B37800A6
:1025600065B27800EC00400063B3780065B2780093
:1025700068014100EE0040003FB69700820F560010
:10258000E8FE3200E3FF370001017800818040005F
:10259000400521008086400040F5200080804000FA
:1025A0004ED520000200E90061006000BD04780003
:1025B00031057800A7828000A87A80000782440055
:1025C000A472880008024500A46A88002500200043
:1025D00009825300B47288000A025400B46A880069
:1025E0001C0020006205210063F520005FAA97000F
:1025F0008C0F520006FE32000000E0001200320094
:10260000BD04780031057800920378001304780047
:1026100007824400C472880008024500C46A88002A
:1026200009825300D47288000A025400D46A8800D8
:10263000050678008205210083F52000DFAA9700B7
:102640008C8F5200F0FD3200BD0478003105780017
:10265000B2037800330478008C0246000583420000
:102660000782440040E5200004337800080245005A
:1026700004337F000502E80084024200098253000F
:10268000843278000A02540084327F000C06E8008D
:102690000D00780083057800B004780031057800DB
:1026A000B20378003B0478008C02460005834200A8
:1026B0000782440043E5200004B379000802450086
:1026C00004337F000502E8008402420009825300BF
:1026D00084B279000A02540084327F000C06E800BC
:1026E000800678008B0178005FAA97008C0F52005B
:1026F000C7FD3200D4FF3700CD42A900CD02A900AA
:10270000CD22A900CCC2A900CCE2A900CD42A800EC
:102710001000200055FA0700CD42A900CCC2A80045
:10272000CCE2A800CCC2A900CCE2A900CD02A8004E
:10273000CD02A90000000600CCC2A900CCE2A9008D
:10274000CD02A900CD22A900CD42A900CEC2A90088
:10275000C8C2A900CEE2A900C8E2A900CF02A90020
:10276000C902A900CF22A900C922A900CF42A9000D
:10277000C942A900E0FF3700881F780002047800F2
:10278000C29D2600A36B2400F0F7070023F8070082
:102790000002BE00C0978000000044007F0160007E
:1027A0000003EB00D3CFB300070220004D00370039
:1027B000CD22A800CCC2A800CCE2A800CCC2A900BF
:1027C000CCE2A900CD22A900CCC2A800CCE2A8008E
:1027D000CCC2A900CCE2A900CD22A900CCC2A8009D
:1027E000CCE2A800CCC2A900CCE2A900CD22A9006D
:1027F000CCC2A800CCC2A900E140610081C0400069
:10280000CDC2BF000340600001407000CDE2B700C0
:10281000CCE2A800CCE2A9008280D100CD22A900A0
:10282000CCC2A800CCC2A900E1C0600081C04000B9
:10283000CDC2BF000340600001407000CDE2B70090
:10284000CCE2A800CCE2A900C290DE00CD22A90013
:10285000CCC2A800CCC2A900E1C0600081C0400089
:10286000CDC2BF000340600001407000CDE2B70060
:10287000CCE2A800CCE2A900C390DE00CD22A900E2
:10288000CCC2A800CCC2A900E1C0600081C0400059
:10289000CDC2BF000340600001407000CDE2B70030
:1028A000CCE2A800CCE2A900CD22A900CCC2A800AD
:1028B000CCC2A900C410DE0081C04000CDC2BF0060
:1028C0000340600001407000CDE2B700CCE2A800F8
:1028D000CCE2A900CD02A800CD02A9004F047800E7
:1028E000000006006140620080404000CDC2BF0091
:1028F0000340600001407000CDE2B700CCC2A800E8
:10290000CCE2A800CCC2A900CCE2A9008582D1000B
:102910000482D3006140620080404000CDC2BF000D
:102920000340600001407000CDE2B700CCC2A800B7
:10293000CCE2A800CCC2A900CCE2A9008582D100DB
:102940000482D3000683E8006140620080404000BA
:10295000CDC2BF000340600001407000CDE2B7006F
:10296000CCC2A800CCE2A800CCC2A900CCE2A9004D
:102970008582D1000482D300614062008040400023
:10298000CDC2BF000340600001407000CDE2B7003F
:10299000CCC2A800CCE2A800CCC2A900CCE2A9001D
:1029A0008582D1000482D3006140620080404000F3
:1029B000CDC2BF000340600001407000CDE2B7000F
:1029C000CCC2A800CCE2A800CCC2A900CCE2A900ED
:1029D0008582D1000482D3006140620080404000C3
:1029E000CDC2BF000340600001407000CDE2B700DF
:1029F000CCC2A800CCE2A800CCC2A900CCE2A900BD
:102A00008582D1000482D300614062008040400092
:102A1000CDC2BF000340600001407000CDE2B700AE
:102A2000CCC2A800CCE2A800CCC2A900CCE2A9008C
:102A30008582D1000482D30065034300870F5300D1
:102A40005BFF3200C0FF37006F08B000889FBE00F8
:102A50008A9FBE008C9FBE008E1F78000000EB0096
:102A6000C097880000067800FF0666000D01780018
:102A700000002000812C24003FFF0700401F2000A1
:102A80007AF907006055B8002860240078B89700EC
:102A9000180010006101B9000210B8000391B900DC
:102AA0000201410081004100E00F5000E08F58001A
:102AB000020035009CF607003C0037006101600011
:102AC000030020008100D1000080D30000017100CC
:102AD000818171000200BE0093F607000001BE0074
:102AE000BDF60700310037004268DD00E1F62F0037
:102AF0008F804000010040000A88BE000C06E800FC
:102B000000402000800F5600D7FF3A007F3097002A
:102B10008F389700F0B79F0081BF9F008005EB00C2
:102B2000020037000B00E00009003A004258DD00C7
:102B300064004000E1F62F008F80400000854000D7
:102B40007FB697008FBE97000007EB0009003700A3
:102B50001A04BE000801BE000C00BE0054F70700B6
:102B60000000E000020034000B0778000806BE00F9
:102B7000640545008B05E800FF8F5500E9FF340030
:102B8000CE9788008200200000002000812C2400C5
:102B9000F9FE07004F0778004F06BE004F05BE0044
:102BA0004F04BE006F08B100000006000001BE0027
:102BB0000A00BE0088F607000005BE00E4044400D9
:102BC00079B89700190010006101B9000210B8002F
:102BD0000391B9000201410081004100E00F500063
:102BE000E08F58000A003D000B0037000001BE00D6
:102BF0000A00BE0078F607000005BE0064844400A9
:102C000020802400880F5000A0FF3A00B6FF370054
:102C100045F60700F5FF3700610160000300200062
:102C20008100D1000080D30000017100818171001A
:102C30000200BE003CF607000001BE0066F6070079
:102C4000EAFF3700C482A900CC62A800CC82A800A9
:102C5000CCA2A800C682A900C082A900CE62A900A9
:102C6000C862A900CE82A900C882A900CEA2A9008C
:102C7000C8A2A9000000060000017800CCA2A900AB
:102C80000100E00002003200C482A8000100370009
:102C9000C482A90000000000C710DE00E1C060008F
:102CA000C308DD00CCC2BF0073CFB3000340600097
:102CB00001407000CCE2B70000000000CC82A90007
:102CC000CC82A800000000000201410000000000CA
:102CD000C710DE00E1C06000C308DD00CCC2BF0049
:102CE0000340600001407000CCE2B700000000002B
:102CF000CC82A900CC82A8000000000002014100A3
:102D000000000000C710DE00E1C06000C308DD0065
:102D1000CCC2BF000340600001407000CCE2B700AD
:102D200000000000CC82A900CC82A80000000000B6
:102D30000201410000000000C710DE00E1C0600099
:102D4000C308DD00CCC2BF0003406000014070003A
:102D5000CCE2B70000000000CC82A900CC82A80021
:102D6000000000000201410000000000C710DE006A
:102D7000E1C06000C308DD00CCC2BF0003406000BA
:102D800001407000CCE2B70000000000CC82A90036
:102D9000CC82A800000000000201410000000000F9
:102DA000C710DE00E1C06000C308DD00CCC2BF0078
:102DB0000340600001407000CCE2B700000000005A
:102DC000CC82A900CC82A8000000000002014100D2
:102DD00000000000C710DE00E1C06000C308DD0095
:102DE000CCC2BF000340600001407000CCE2B700DD
:102DF00000000000CC82A900CC82A80000000000E6
:102E000000000000020141004711DE006141610045
:102E10004311DD00CCC2BF000340600002407000DF
:102E2000CCE2B70000000000CC82A900CC82A80050
:102E300000000000CCA2A80000000600881F780057
:102E4000004478008180FB0001007800000BB30093
:102E50008000EB0088FF07000884FB004440DE0090
:102E60000040A0008000EB0083FF07006F006400BB
:102E70008000EB0080FF07004F0478000000060090
:102E8000889FBE008A1F780080417800A2C0B300EE
:102E900000C2B30080CF51000200320000CDB30069
:102EA00000C141000104E000240032000204FB00E4
:102EB0006544B9006A72280068407D000080FB000C
:102EC0000080EA00110020006BFF07000800E80006
:102ED00060407D000080FB000080EA0011002000BF
:102EE00065FF07000880E80060407D000080FB006F
:102EF0000080EA00110020005FFF0700630044002B
:102F000060407D000080FB000080EA00110020008E
:102F100059FF0700640444006A407C000080FB0005
:102F20000080EA001100200053FF0700110020007C
:102F3000F00F200050FF07001E0037000204FB00C6
:102F40006544B9006A72280068407D000080FB007B
:102F50001100200048FF07000800E80060407D00E5
:102F60000080FB001100200043FF07000880E800FC
:102F700060407D000080FB00110020003EFF070044
:102F80006300440060407D000080FB0011002000D1
:102F900039FF0700640444006A407C000080FB00A5
:102FA0001100200034FF0700110020000000EB009A
:102FB00031FF07004F0578004F04BE0000000600F7
:102FC000889FBE000004780081447800104078009B
:102FD0000004E0000500320089407800A8FF0700E7
:102FE000584078000004E000FBFF3A004F04BE00A8
:102FF00000000600889FBE0000047800814478002D
:103000004C00DE00E94F500012003400130037007E
:103010006F406400E94F500002003C000043B000E4
:10302000010037007043B0000904E0002B003400B9
:103030008040EB0092FF0700280037008040EB0043
:103040008FFF070007003700E3CF5400050034006E
:10305000FAFF37000043B000FBFF37007043B000B9
:10306000F9FF37004840DE006F406000E94F500034
:1030700007003400080037008040EB0080FF0700A5
:1030800007003700E2CF540005003400FAFF370094
:103090000043B000FBFF37007043B000F9FF37007A
:1030A0004440DE006F406000E94F500007003400EC
:1030B000080037008040EB0071FF0700D4FF3700A5
:1030C000E1CF5400D2FF3400FAFF37000043B000D4
:1030D000FBFF37007043B000F9FF37004F04BE001C
:1030E00000000600889FBE008A9FBE0080457800D1
:1030F000014578000084FB00A200200011000900B7
:103100000284D8000004780001C3B30001404400E9
:103110008A4078005AFF07000804FB006A44B9009F
:1031200008C055000043B0008A40780054FF0700F3
:103130004F05BE004F04BE0000000600889FBE0081
:103140008A9FBE008C1F78008004780001057800FB
:103150000000EB00800878008205FB00027122006D
:10316000801F7800110009008284D80000017800D7
:103170004F00780002447800804078000B00E000A7
:1031800001003A0011C0B3000804E00015003A0045
:10319000100037000800FB00027122000280B90015
:1031A00080845400823E2000110009008284D800EF
:1031B00000017800024478008040EB00E18F550068
:1031C00001003A008B4078000C00E00027003A0034
:1031D0002900370000C2B30029FF07001C002000AF
:1031E000ECFF370002C3B3000240440024FF070095
:1031F0001A0DE8000006EB00E6FF37000800FB00B0
:10320000823E20000280B900008454004206200063
:10321000110009000284D80000017800824478007F
:103220008B0078000110A2000100EA00010070008C
:10323000CF00DE0010C0B300814050000C00E00061
:103240002D003A002F00370000C2B3000CFF07002A
:10325000EAFF370002C3B3000240440008FF070042
:103260001A0DE8000006EB00E4FF37000804E00058
:10327000F8FF3A00F4FF370002C3B30002404400F5
:10328000FFFE07001A0DE800DCFF37000900FB0015
:10329000420620000280B90000045400A200200071
:1032A000110009000284D8000001780082447800EF
:1032B000E3806D000100EA0001007000CF00DE0035
:1032C00010C0B300814050000C00E00026003A001E
:1032D0002700370000C2B300E9FE0700EBFF37000C
:1032E00002C3B30002C04400E5FE07001A0DE80067
:1032F0000006EB00E5FF37000204E000F8FF3A00AB
:10330000F4FF370002C3B30002C04400DCFE070034
:103310001A0DE800DDFF37000B0078000020A20046
:103320008000EA0080807000CF08DE0010C0B3008B
:10333000814050000900FB006A01B90002005400FE
:103340000043B000CEFE07001A0DE8004F067800DB
:103350004F05BE004F04BE000000060000C2B300CF
:10336000C7FE0700ECFF37000204E000FBFF32005D
:1033700002C3B30002C04400C1FE07001A0DE800FA
:10338000E5FF3700889FBE008A9FBE007AF70700DE
:103390000005EB000BC8B300060037000A05E80083
:1033A000E80F550003003A004F05BE004F04BE0071
:1033B000000006008A4078000040EB009FFE0700F6
:1033C00078C0B300110020000000EB002AFE0700C7
:1033D0004006200025F7070019C0B3008BCF54002A
:1033E000EEFF32000804E00038003200894F54003C
:1033F0002E003200E24F540026003200E34F54000A
:103400001E003200E44F540016003200E54F540015
:103410000E003200E64F540006003200110020007A
:103420000000EB0014FE0700400620000FF7070025
:1034300029C0B300110020000000EB000EFE0700C1
:103440004006200009F707008944E8001100200029
:103450000000EB0008FE07004006200003F707000D
:103460008944E800110020000000EB0002FE070084
:1034700040062000FDF607008944E8001100200006
:103480000000EB00FCFD070040062000F7F60700F7
:103490008944E800110020000000EB00F6FD070061
:1034A00040062000F1F607008944E80011002000E2
:1034B0000000EB00F0FD070040062000EBF60700DF
:1034C0008944E8008BCF5400B4FF32001100200083
:1034D0000000EB00E8FD070040062000E3F60700CF
:1034E0000944E800110020000000EB00E2FD0700A5
:1034F00040062000DDF60700110020000000EB0070
:10350000DDFD070040062000D8F60700110020006E
:103510000000EB00D8FD070040062000D3F60700AE
:10352000110020000000EB00D3FD07004006200042
:10353000CEF60700110020000000EB00CEFD0700D2
:1035400040062000C9F60700110020000000EB0033
:10355000C9FD070040062000C4F607001100200046
:103560000000EB00C4FD070040062000BFF6070086
:10357000E74444008BCF540088FF3200D3FF37006C
:103580008001FA00889FBE008A9FBE008C1F7800D1
:10359000004278000145780061E72F008F804000ED
:1035A0000041EB00EA8157000A0137008484FB00E8
:1035B0000002EB0066EF2F000683470065F72F003F
:1035C0008582470007C5200008FC2F000800420044
:1035D00000017800F207B20082004100400521009E
:1035E000E10178000300E00001003D008301EA00F2
:1035F0008200410040F52000610078000000E000FA
:1036000001003D000000EA00008041008980DE00EA
:103610000A04E000070032001700780000004000B4
:10362000800B7800E78F5000020034000000A000FB
:10363000800B7800E38F50006C00320006003C00E5
:10364000E18F50006400320066003C000100E000A1
:103650005F00320074003700E58F500069003200CF
:1036600065003500E68F500069003200E78F50009A
:103670006D003A00690037008048EB001500370004
:1036800000C8B300804878001200370088487800EE
:103690001000370000CEB300804878000D003700DE
:1036A00000CFB300804878000A00370080CFB30015
:1036B0008048780007003700C0CFB300804878000A
:1036C00004003700E0CFB3008048780001003700E5
:1036D00080C8EB000402E8000603E8008502E80069
:1036E0008783E80000082000800F5200B7FF3A00EF
:1036F0000006EB008C4078000040EB00CFFD070097
:103700004760DD000C00E00028003A0061E72F0070
:103710008F804000808440000C0478003A04200030
:103720001981FB008A0F54000F00320007003C0093
:1037300010042000800F54000F0032000000E80049
:10374000800F54000D003A000900370040042000AB
:10375000800F5400060032000000E800800F540083
:1037600006003A00040037007200B300030037007F
:103770003200B300010037000200A0001100200059
:10378000020078003CFD07000804E8008904E80016
:1037900000082000800F5400E1FF3A000C06E8000A
:1037A000E30F560062003200D2FF370062E72F00BD
:1037B0000F014100000541008004EB000B082000D0
:1037C000600037006880500019003B00C1FF3700DF
:1037D000804AEB00FBFF370000C8B300804A780046
:1037E000F8FF3700884A7800F6FF370000CEB300B4
:1037F000804A7800F3FF370000CFB300804A78009A
:10380000F0FF370080CFB300804A7800EDFF37002B
:10381000C0CFB300804A7800EAFF3700E0CFB300A2
:10382000804A7800E7FF370080CAEB00E5FF3700E9
:10383000E30F50002D00320006003C00E10F500065
:103840002500320027003C000000E000200032008C
:1038500035003700E50F50002A0032002600350001
:10386000E60F50002A003200E70F50002E003A0009
:103870002A00370062E72F000F0141008400410059
:10388000E30F500083FF320006003C00E10F5000C0
:103890007BFF32007DFF3C000000E00076FF32003D
:1038A0008BFF3700E50F500080FF32007CFF3500B2
:1038B000E60F500080FF3200E70F500084FF3A000F
:1038C00080FF370070805000EAFF3B0081FF370027
:1038D000004BEB00FBFF370000C8B300004B780043
:1038E000F8FF3700084B7800F6FF370000CEB30032
:1038F000004B7800F3FF370000CFB300004B780097
:10390000F0FF370080CFB300004B7800EDFF3700A9
:10391000C0CFB300004B7800EAFF3700E0CFB30020
:10392000004B7800E7FF370000CBEB00E5FF3700E6
:103930004F0678004F05BE004F04BE000080FA001D
:10394000000006003A80FB0011002000CAFC0700BE
:103950008904E8000A0478003A80FB001100200086
:10396000C5FC07001A80FB0011002000C2FC070004
:103970000885E8001A80FB0011002000BEFC07004B
:10398000630544001A80FB0011002000BAFC070008
:10399000640544001A80FB0011002000B6FC0700FB
:1039A000650544001A80FB0011002000B2FC0700EE
:1039B000660544001A80FB0011002000AEFC0700E1
:1039C000E7844400670544008B8F540073FF320086
:1039D000DCFF3700825878000100780082587800B8
:1039E000824878008080E80082487800E300400048
:1039F00082487800E400400082487800E5004000FA
:103A000082487800E600400082487800E7004000E5
:103A1000838F5000E5FE3200EEFF3700889FBE0026
:103A20008A9FBE0031C0B3000040EB0003FD0700D9
:103A300009C52000FA0320000BD5200073003700D1
:103A40004F05BE004F04BE000000060041C0B30099
:103A50000040EB00F9FC070020C520000080540066
:103A60000000D10067046000806280004600DE0034
:103A70000080FB00110020007FFC07002AC5200009
:103A8000890F5500EEFF32000800E00032003200DE
:103A9000E10F540029003200E20F540022003200EE
:103AA000E30F54001B003200E40F540014003200F6
:103AB000E50F54000D003200E60F540006003200FE
:103AC0001A0078004600DE000080FB001100200094
:103AD00069FC07004AC520003A0078004600DE0075
:103AE0000080FB001100200063FC07003A00780012
:103AF0004600DE000080FB00110020005EFC070095
:103B00003A0078004600DE000080FB001100200033
:103B100059FC07003A0078004600DE000080FB00F8
:103B20001100200054FC07003A0078004600DE0037
:103B30000080FB00110020004FFC07003A007800D5
:103B40004600DE000080FB00110020004AFC070058
:103B5000890F5500BAFF32003A0078004600DE00B7
:103B60000080FB001100200043FC07000A047800DD
:103B70003A0078004600DE000080FB0011002000C3
:103B80003DFC07001A0078004600DE000080FB00C4
:103B90001100200038FC0700280090004600DE00DD
:103BA0000080FB001100200033FC0700380090006B
:103BB0004600DE000080FB00110020002EFC070004
:103BC000480090004600DE000080FB00110020004D
:103BD00029FC0700580090004600DE000080FB0032
:103BE0001100200024FC0700680090004600DE0061
:103BF0000080FB00110020001FFC07006E05440040
:103C0000890F55008EFF3200D3FF37003900650061
:103C10004200DD000000A0001100200016FC07009B
:103C200009047800390065004200DD000004A000AE
:103C30000080FB00110020000FFC07001900650048
:103C40004200DD000004A0000080FB001100200005
:103C500009FC0700E4044400190065004200DD008F
:103C60000004A0000080FB001100200002FC0700FF
:103C7000E6044400190065004200DD000004A000D5
:103C80000080FB0011002000FBFB0700E80444005B
:103C9000190065004200DD000004A0000080FB0068
:103CA00011002000F4FB0700EA044400190065003D
:103CB0004200DD000004A0000080FB001100200095
:103CC000EDFB0700EC044400190065004200DD0034
:103CD0000004A0000080FB0011002000E6FB0700AC
:103CE000EE0444008B8F540058FF3200C7FF3700AA
:103CF000889FBE008A1F7800800478000104780045
:103D00000245780051C0B3000040EB004BFC0700B7
:103D10008040EB00D07F2800A9FC07008900EA0062
:103D200089807000CF08DE0010C0B30081405000D1
:103D300010C1B30008405000EAFC070051C0B300B6
:103D400000C2B3003DFC07008040EB00E18F54004F
:103D500001003A00894078000A04E00003003200C4
:103D6000E14F550006003A0003003700108028009C
:103D700093FC0700020037004080280090FC0700F9
:103D800051C0B300C0C6B3002CFC07008040EB005C
:103D9000708028008AFC070069806C008000EA00BF
:103DA00080807000CF08DE0010C0B300814050005A
:103DB000F8D2BF00CBFC07004F0578004F04BE00CF
:103DC00000000600E4874700889FBE008A9FBE006F
:103DD0008C9FBE008E1F7800024778008241200031
:103DE00083142400FCF107000006BE008BF20700DC
:103DF0000005BE0051C0B300E0C2B3000FFC0700D5
:103E00000E417800F08057000A007800CBFC0700D4
:103E10008040EB0000C4B30019FC07006154B900F6
:103E20000800BE00C0F107000001BE000C00BE008B
:103E3000E8F107000005BE00020020000312240084
:103E400042F2070075F207000004BE008E407800C1
:103E500051C0B2008180FB008100E900CF08DE0084
:103E600002C3B3000240440005FC07000E40780086
:103E700060C0B2000080FB000000E9004F06DE00D9
:103E80006140B900A8F10700D2CC2C00C3DC2B00A4
:103E90002EF207000001BE000A00BE00CEF10700AE
:103EA00002002000832C240028F207005BF20700A8
:103EB0000043B0008C407800F1FB070011002000A7
:103EC000E00F20006CFB0700110020000002200022
:103ED00069FB070011002000000D200066FB0700B1
:103EE000110020000000EB0063FB07001100200020
:103EF000E00F200060FB07001100200000012000FF
:103F00005DFB070011002000E00F20005AFB0700B6
:103F1000110020000000EB0057FB070011002000FB
:103F20000009200054FB070011002000000D2000B4
:103F300051FB070011002000000B20004EFB070082
:103F4000507228001080FB00110020004AFB07007F
:103F50004F0778004F06BE004F05BE004F04BE005D
:103F60004F00B1000000060002002800F22F8A0076
:103F70008DC3A9008DA3A8008CC3BF00F1CCB300F2
:103F8000014060000044A0008CE3B7008CC3BF0078
:103F9000C1CFB300014060008CE3B700803F200038
:103FA000A01C88009623EF00F0042000701C8800FD
:103FB000E05F2000801C880085C0A90095C0A90092
:103FC0008DE3A8004BA7A90070C0B3004B67B700F2
:103FD000F3E3A800F343A800F183A900F0C3BF00F6
:103FE00001C8B30001406000F041B300F0E3B70046
:103FF000F103A900F1E3A800A21F88000000060059
:10400000F6874700889FBE008A9FBE008C9FBE0037
:104010008E1F7800F0032000303A880044C7BF00AC
:10402000F043B20044E7B70044C7BF0001CEB3007D
:10403000014060000004A00044E7B7004827EF00FB
:1040400045C7BF0081CFB3000140600045E7B7001E
:1040500040A7A90012002000A1092000800720002D
:1040600033742000804978008149780082497800C3
:10407000103A8000710520006004200025742000A3
:10408000804A7800814A7800824A780043C7BF009E
:104090000047B200F04F5000FCFF3A0042C7BF009B
:1040A0000058A300FDFF32002CA3EF0048062000BB
:1040B00031F407000804E900FDFF3A00C9A2A80096
:1040C000C982A800C962A80069A0A80069C0A800A8
:1040D00069E0A800DBFA070088007800E00A200009
:1040E000E5FA070088007800000A2000E2FA0700DD
:1040F00088007800800C2000DFFA07008800780034
:10410000300A2000DCFA070088007800C002200096
:10411000D9FA070018F4070088007800E0022000B0
:10412000D5FA070014F4070088007800F002200098
:10413000D1FA07008800780030022000CEFA07008C
:104140008800780010082000CBFA0700880078006B
:10415000C0012000C8FA070088007800400A20004B
:10416000C5FA07008800780000042000C2FA0700A2
:1041700088007800600A2000BFFA070088007800F5
:10418000F00A2000BCFA0700FBF307007DFC0700E3
:1041900031C0B3000840780028FB07000808200061
:1041A0001100200010002000B3FA07000804E90005
:1041B000FBFF3A0060F907000801780000002000CA
:1041C000011224006CF9070008417800B1002000BA
:1041D00008007800C6FE0700E2CFB30080FF2E0083
:1041E00071482400F7FE0700886288009862880002
:1041F000A8628800B8628800C8628800D862880017
:10420000E8628800F8628800086388001863880004
:1042100028638800386388004863880058638800F2
:10422000686388007863880001A5200000202000D2
:104230000285200000B47800003479000884E8008A
:10424000800F5400FBFF3A00E0F3070057F407002B
:1042500070F30700BB02070043FF0700FAF90700ED
:104260008200200080FF2E007148240042F90700E0
:10427000E2CFB30080FF2E0071482400D1FE07007A
:104280000041EB00B10020000000EB0098FE0700A9
:104290008003EB0087BF9F00B0002000F0B79F00B5
:1042A00082FF2E0073482400D2B79F00E3B79F001F
:1042B00087017800C7B79F00B7B79F00170020009D
:1042C000A7B79F0097B79F0088B79F00080778009F
:1042D000F3AF9F000C602400030178000100370059
:1042E0004FB197000201E800C2B79F00FFB19700ED
:1042F0008386D100531C80008301D100FFB2970058
:104300006184620066292100672721000380410043
:10431000000040008080E80061027E00E0027E0034
:104320000301E90076013B00740137004388DE0099
:104330008FB09700010050008D80DE00010B7800E7
:1043400043A0DE000E0050000D81DE00820B7800DD
:104350000800E000060032006B08B9004480DE006F
:10436000000B78006B10B9004480DE00800B7800F1
:104370000683E9008783E90060272100800F53004E
:10438000E2FF3A004AF40700F0938000CF80DE009D
:1043900065F007000005BE00F0928000CF80DE00CF
:1043A00061F007000004BE000A01BE000A00BE0062
:1043B000E6F007000005BE000801BE000800BE00D0
:1043C000E2F007000001BE000A00BE0082F0070014
:1043D00039F1070011F107004600DD00F02F8A00D7
:1043E0000FE997000204E0001E003A00CBC2BF00B4
:1043F0000038A3000300320013002000A3B79F0081
:1044000018003700AFB297000500E0001500320039
:104410008FBB97008703E80087BF9F00E98F530099
:10442000040036000000EB0080BF9F000FF49700EF
:10443000020037000FB897000FF497000041EB001F
:10444000FFB097002AFE070008C1E9005FB097009F
:10445000EFB097005BFE07008000EB00A1B79F0064
:10446000F1AF9F00CFB197006F806100A3003A00C9
:10447000CBC2BF000048A30003003200150020009B
:1044800095B79F009D0037009FB397000700E0009D
:104490009A003200CBC2BF000058A3004100320096
:1044A0000FB997006110B800E90F5000E08F580075
:1044B00074003E00006001000900370074003700FE
:1044C0000D0037000F0037001A00370025003700B5
:1044D00027003700290037002B0037002D00370058
:1044E000FFB19700EF8F510069003C008301E800A5
:1044F000F3B79F006600370002002400C361240068
:104500000E00370002002000A34724005FB0970090
:10451000EFB097002FF007000004BE00020020005B
:10452000030E2400E2F007000000E000D7003D0089
:104530006800370002002000832C24005FB0970041
:10454000EFB0970023F007000004BE000200200037
:10455000030E2400D6F007000000E0005D003500E7
:10456000CA0037000200200003122400F3FF3700C6
:104570000200200003F82300F0FF3700D2CC2C000B
:10458000C3DC2300EDFF3700A2702D0033C22300EF
:10459000EAFF3700F812EC007F006000C097880047
:1045A000430037008FBA97006128B800E90F500028
:1045B000E08F580033003E00006001000900370022
:1045C000330037000D0037000F00370011003700AF
:1045D00013003700150037001700370019003700A7
:1045E00024003700FFB397000700E00028003400E4
:1045F0008703E900F7B79F00250037000200240079
:10460000C36124001100370002002000A3472400EA
:104610000E00370002002000832C24000B0037001E
:1046200002002000031224000800370002002000CE
:1046300003F8230005003700D2CC2C00C3DC230094
:1046400002003700A2702D0033C223005FB0970034
:10465000EFB09700E0EF07000004BE0002802E00DC
:10466000D3772400C9F007000000E00019003C00E7
:1046700086003700F812ED007F006000C0978800C8
:104680000B0037000FB89700E10F500005003E0007
:104690000041EB00FFB097000FB8970094FD0700B2
:1046A0007D0037008FB89700E98F500009003A006D
:1046B000820020005FB09700EFB097002EF807004F
:1046C0000041EB00FFB097009000200088FD07003C
:1046D00071003700820020005FB09700EFB09700B4
:1046E00025F807008FF1970003C1E9005FB097003C
:1046F000EFB09700B3FD07006700370030062000D9
:10470000FFAA9700808F520005003400F0FF2000C0
:10471000CFB3970000806300F1FE3A000600370037
:104720004FB09700F03FB200EDFE3A007FA897002F
:104730000000E800F0AF9F00BFB097008100E800E4
:10474000B1B79F0001017800F20FB2006044B800D9
:104750000805BE0026602400218024002E013700B9
:104760000201410004A52000C949DD004740DE00E8
:1047700000807100C7C8DE0000317A000385200088
:10478000C95ADD004750DE0000807200C7D8DE0045
:1047900000B179006044B8000805BE008002EB005B
:1047A0008300780003202000D0003700C84BDD00D4
:1047B0004840DE0000807300C8C8DE0080B79F005C
:1047C0004859DD004850DE0000007100C8D8DE0006
:1047D00000077800541C80000402D100FFB197004C
:1047E0000308A30030003200261521002505210012
:1047F000086024002705210004004200000040005A
:1048000060017C000E0151000D91DE000080E80087
:1048100060007C008FB09700010050000D80DE002A
:104820006B00B9004480DE00000B78006B11B9000A
:104830004491DE00820A78000402E90001003B0096
:10484000F40720000683E9008582E900870F530002
:10485000E9FF3A005FF507000044EB00F0FF23009A
:104860004FB197000000610001003A0018C0B3008A
:104870008840780050C0B30041FB07000804E00006
:1048800097FE320065FC070095FE3700D8B79F0001
:10489000E9B79F008FFF37008001EB0093B79F00BF
:1048A000F3AF9F009EFF3700221521002305210052
:1048B000056024002605210004004200800040001D
:1048C0000180E80060807A008FB3970007005000F5
:1048D0000D80DE000009780061807A000E00500033
:1048E0000D80DE00800978000402E9004B003B00E7
:1048F000F40720008FB3970048003700F20720002C
:1049000002004100000040008080E800E1007E00DD
:104910000102420060007E00808142000201E90045
:1049200001003B00F20720000200410000004000AF
:104930008080E800E1007E000102420060007E000D
:10494000808141000201E90001003B00F2072000E4
:1049500002004100000040008080E800E1007E008D
:104960000102420060007E00808141000201E900F6
:1049700001003B00F207200002004100000040005F
:104980008080E800E1007E000102420060007E00BD
:10499000808141000201E90001003B00F207200094
:1049A00002004100000040008080E800E1007E003D
:1049B0000102420060007E00808141000201E900A6
:1049C00001003B00F207200002004100000040000F
:1049D0008080E800E1007E000102420060007E006D
:1049E000808141000201E90001003B00F207200044
:1049F00002004100000040008080E800E1007E00ED
:104A00008100420060007E00008241008201E900D6
:104A100046FE3B00F307200044FE37000281E90018
:104A20008381E90004004200800040000180E8002A
:104A300060807A00070050000D80DE0000097800D9
:104A400061807A000E0050000D80DE008009780041
:104A50000402E90002003B00F40720008FB3970036
:104A600004004200800040000180E80060807A007D
:104A7000070050000D80DE0070B99F0061807A0051
:104A80000E0050000D80DE00F0B99F000402E90026
:104A900002003B00F40720008FB39700040042009F
:104AA000800040000180E80060807A00070050002C
:104AB0000D80DE0060B99F0061807A000E0050001A
:104AC0000D80DE00E0B99F000402E900050033001C
:104AD00066015100E6815100860F510076FF3A00D1
:104AE0005CFF3700F4072000F9FF370065017A000A
:104AF0006113B9000804430089844B006581780084
:104B00006113B9000A0543008B854B000580E8005E
:104B100060017A006113B9000804430089844B00E6
:104B2000608178006113B9000A0543008B854B0052
:104B30008082E80065017A006113B900080443002F
:104B400089844B00658178006113B9000A05430030
:104B50008B854B00E402400065017A006113B900C7
:104B60000804430089844B00658178006113B90013
:104B70000A0543008B854B00E602400065017A0080
:104B80006113B9000804430089844B0065817800F3
:104B90006113B9000A0543008B854B00E802400011
:104BA00065017A006113B9000804430089844B0051
:104BB000658178006113B9000A0543008B854B00BD
:104BC000EA02400065017A006113B900080443005D
:104BD00089844B00658178006113B9000A054300A0
:104BE0008B854B00EC02400065017A006113B9002F
:104BF0000804430089844B00658178006113B90083
:104C00000A0543008B854B00EE024000838F520063
:104C1000E6FE3200B5FF370096017800611AB90050
:104C20000804420089844A00F6B99700611AB90065
:104C30000A0542008B854A00640043009001780019
:104C4000611AB9000804420089844A00F0B997004B
:104C5000611AB9000A0542008B854A0064034000CE
:104C600096017800611AB9000804420089844A005C
:104C7000F6B99700611AB9000A0542008B854A000F
:104C80006803400096017800611AB90008044200E8
:104C900089844A00F6B99700611AB9000A054200F2
:104CA0008B854A006C03400096017800611AB900B8
:104CB0000804420089844A00F6B99700611AB900D5
:104CC0000A0542008B854A00700340009601780077
:104CD000611AB9000804420089844A00F6B99700B5
:104CE000611AB9000A0542008B854A00740340002E
:104CF00096017800611AB9000804420089844A00CC
:104D0000F6B99700611AB9000A0542008B854A007E
:104D10007803400096017800611AB9000804420047
:104D200089844A00F6B99700611AB9000A05420061
:104D30008B854A007C034000810F530088FE3200BF
:104D4000B5FF370021A3A80021C3BF00C3CFB30024
:104D50000340600021E3B70002CEB30002407800B8
:104D60002063B7002043A9002143A9002183A800A4
:104D70002063A80023C3BF007F40600023E3B70087
:104D80002343A9002203A90022C3BF0031CCB300F2
:104D90000140600022E3B70023C3BF00034060006E
:104DA0000004A00023E3B70025E3A90025C3BF004A
:104DB0000240600025E3B70020C0B30024E3B70041
:104DC00028C3BF00024060000004A00028E3B70031
:104DD00028E3A9002603A90026C3BF0091CFB30092
:104DE0000140600026E3B7002CA3EF002C03A900CC
:104DF0002C23A90085A0A90095A0A90021E3A80063
:104E00002043A800000006008020A900FFFF370013
:104E10008060A900FFFF37008040A900FFFF370036
:104E20008080A900FFFF370080A0A900FFFF3700A6
:104E30008020A900FFFF37008060A900FFFF370036
:104E40008040A900FFFF37008080A900FFFF3700E6
:104E500080A0A900FFFF3700F81200000200000048
:104E6000020000000000000050080000A80A000036
:104E700000000000FE4500000200000000000000ED
:104E8000004600000002000000000000FA120000CE
:104E9000020000000000000000000000FFFFFF0013
:104EA000FFFFFF00FFFFFF00FFFFFF00FFFFFF000E
:104EB000FFFFFF00FFFFFF00FFFFFF00FFFFFF00FE
:104EC000FFFFFF00FFFFFF00FFFFFF00FFFFFF00EE
:104ED000FFFFFF00FFFFFF00FFFFFF00FFFFFF00DE
:020000040001F9
:0200000401F009
:10000000CF000000CF000000FFFF000078FF0000DD
:100010007BFF00007FFF0000F7000000DFFF000013
:10002000FF000000FF000000FF000000FF000000D4
:00000001FF
